:100000000C9472000C9493000C9493000C94930045
:100010000C9493000C9493000C9493000C94930014
:100020000C9493000C9493000C9493000C94930004
:100030000C9493000C9493000C9493000C949300F4
:100040000C9493000C9493000C9493000C949300E4
:100050000C9493000C9493000C9493000C949300D4
:100060000C9493000C9493000C9493000C949300C4
:100070000C9493000C9493000C9493000C949300B4
:100080000C9493000C9493000C9493000C949300A4
:100090000C9493000C9493000C9493000C94930094
:1000A0000C9493000C9493000C9493000C94930084
:1000B0000C9493000C9493000C9493000C94930074
:1000C0000C9493000C9493000C9493000C94930064
:1000D0000C9493000C9493000C9493000C94930054
:1000E0000C94930011241FBECFEFD1E2DEBFCDBF31
:1000F00000E00CBF12E0A0E0B2E0EEE0F8E000E0CB
:100100000BBF02C007900D92A83BB107D9F712E0D0
:10011000A8EBB2E001C01D92AA3BB107E1F70E9433
:100120002B020C9405040C940000DF93CF930F92E4
:100130000F92CDB7DEB71A8219826CE770E0DB014F
:100140008C91887F86608C93EAE7F0E08081806400
:100150008083808129E730E0D9018C91482F50E0DD
:10016000DB018C9187608C93808180648083E08147
:10017000F901808190E08417950734F444365105E5
:100180001CF424EB30E002C020E030E048175907AF
:1001900044F4843691051CF42EE031E002C02AE5D7
:1001A00030E0822F932F0F900F90CF91DF91089521
:1001B000EF92FF920F931F93DF93CF9300D00F9294
:1001C000CDB7DEB78C011A821982EE24FF24E9E054
:1001D000F1E01C821B82808185FF0CC00115110596
:1001E00049F42B813C81C90101969C838B83205D5E
:1001F00037408CF3808185FD0CC00115110549F451
:100200002B813C81C90101969C838B83205D374003
:100210008CF3808185FF1DC001151105D1F42B8160
:100220003C81C90101969C838B83205D37408CF40F
:1002300089819A8101969A838983808185FF09C08B
:100240002B813C81C90101969C838B83205D3740C3
:100250007CF3808183FF0CC00130110549F42B81B0
:100260003C81C90101969C838B83205D37408CF3D0
:10027000808183FD0CC00130110549F42B813C8144
:10028000C90101969C838B83205D37408CF380816C
:1002900083FF1DC001301105D1F42B813C81C901C0
:1002A00001969C838B83205D37408CF489819A81F1
:1002B00001969A838983808183FF09C02B813C81C9
:1002C000C90101969C838B83205D37407CF38B8131
:1002D0009C81805D9740C1F480E092E00E945F03C2
:1002E000802F0E94A0038DE092E00E945F038E2D7C
:1002F0000E94A00388E292E00E945F038AE00E94CD
:100300004E0320E030E015C00894E11CF11C8AE0A7
:10031000E816F10409F05DCF89819A8189819A817B
:10032000B7010E94DE03862F972F9A838983298144
:100330003A81822F932F0F900F900F900F90CF91B3
:10034000DF911F910F91FF90EF900895DF93CF936E
:100350000F920F92CDB7DEB79C011A821982ECE79B
:10036000F0E08081807E80832130310599F0223059
:100370003105D1F0232B29F040E050E020E030E0BF
:100380001CC0ECE7F0E08081808340E050E020E09A
:1003900030E013C0ECE7F0E080818260808340E0D1
:1003A00050E020E030E009C0ECE7F0E080818460BC
:1003B000808340E050E020E030E0EAE7F0E0A9E7A9
:1003C000B0E080818064808380818C91480F511DD2
:1003D0002F5F3F4F25303105A1F789819A81885ED3
:1003E000934051F58EE292E00E945F038AE00E9402
:1003F0004E0340E050E020E030E0EAE7F0E0A9E71B
:10040000B0E080818064808380818C91480F511D91
:100410002F5F3F4F25303105A1F789819A81805D9B
:10042000974051F485E592E00E945F038AE00E94C4
:100430004E0320E030E008C0CA0165E070E00E9491
:10044000DE03862F972F9C01822F932F0F900F9002
:10045000CF91DF9108952F923F924F925F926F92CA
:100460007F928F929F92AF92BF92CF92DF92EF9244
:10047000FF920F931F93CF93DF93ECE7F0E080811F
:1004800080668083EAE7F0E08081806880838081F5
:10049000876080838FEF80937E0080937D008081D2
:1004A00080648083E1E0F1E0808180668083E4E223
:1004B000F0E08081806E8083808189608083EAE0C3
:1004C000F1E08081846180830E943D030E94950059
:1004D0009093B9028093B802789482E692E00E94E9
:1004E0005F038AE00E944E0306E210E00F2EFBE657
:1004F000EF2EF2E0FF2EF02DC0E2D0E00F2EF8E854
:10050000CF2EF2E0DF2EF02D0F2EFAE92F2EF2E0A3
:100510003F2EF02D0F2EF0EA4F2EF2E05F2EF02D41
:100520000F2EF6EA6F2EF2E07F2EF02D0F2EFCEA52
:100530008F2EF2E09F2EF02D0F2EF2EBAF2EF2E079
:10054000BF2EF02D8AE00E944E03F801808185FFC6
:1005500005C086E692E00E945F0303C0C7010E94C7
:100560005F03F801808183FF05C080E792E00E946D
:100570005F0303C0C7010E945F03F801808181FF10
:1005800005C085E792E00E945F0303C0C7010E9497
:100590005F03E2E3F0E0808181FF05C08AE792E03B
:1005A0000E945F0303C0C7010E945F03E9E2F0E01D
:1005B000808187FF05C08FE792E00E945F0303C040
:1005C000C7010E945F03888182FF05C084E892E032
:1005D0000E945F0303C0C6010E945F03888184FFFD
:1005E00005C08CE892E00E945F0303C0C6010E9430
:1005F0005F03888186FF05C080E992E00E945F0367
:1006000003C0C6010E945F0384E992E00E945F0379
:100610000E9495000E94A003C1010E945F0380E038
:1006200090E00E94A6010E94A003C2010E945F0305
:1006300081E090E00E94A6010E94A003C3010E94F5
:100640005F0382E090E00E94A6010E94A003C40123
:100650000E945F0380E090E00E94D8000E94A00307
:10066000C5010E945F0381E090E00E94D8000E94D3
:10067000A0038AE00E944E0365CF1092C50087E672
:100680008093C400E0ECF0E080818D7F808388E17E
:100690008093C10086E08093C2000895982FE0EC1B
:1006A000F0E0808185FFFDCF9093C6000895E0ECD7
:1006B000F0E080818823ECF78091C60008951F93B5
:1006C000CF93DF93EC018881882351F010E00E94E2
:1006D0004E031F5FFE01E10FF11D80818823B9F7F2
:1006E000DF91CF911F910895EF92FF920F931F9387
:1006F000CF93DF937C0170E0EB0121971C161D0660
:1007000014F000E012C000E00E945703182F0E946E
:100710004E031D3051F0F701E00FF11D10830F5F04
:10072000802F90E08C179D077CF3F701E00FF11DFF
:100730001082DF91CF911F910F91FF90EF9008955C
:100740001F93182F64E60E94D203805D0E944E031F
:10075000812F6AE00E94D2030E94D203892F805D1C
:100760000E944E03812F6AE00E94D203892F805D90
:100770000E944E031F9108958A3010F4805D089501
:10078000895C08951F93182F82958F700E94BC0377
:100790000E944E03812F8F700E94BC030E944E0363
:1007A0001F910895991B79E004C0991F961708F0CE
:1007B000961B881F7A95C9F78095089597FB092E97
:1007C00007260AD077FD04D00CD006D000201AF4FA
:1007D000709561957F4F0895F6F7909581959F4F9D
:1007E0000895AA1BBB1B51E107C0AA1FBB1FA61778
:1007F000B70710F0A61BB70B881F991F5A95A9F7CA
:0E08000080959095BC01CD010895F894FFCF2E
:10080E007761726E696E67205443532000206F75B6
:10081E0074206F6620626F756E64617269657320F5
:10082E0061667465723A20002072756E730077618E
:10083E00726E696E6720414443206F7574206F6637
:10084E0020626F756E646172696573207265747271
:10085E0079696E67005265747279206661696C659C
:10086E00640052445900464C2020002020202000D5
:10087E0046523120004652322000424C2020004287
:10088E0052202000424E2000202020004B532000FA
:10089E00454D2000204D41473D00204952303D003E
:1008AE00204952313D00204952323D0020434C3008
:0808BE003D0020434C313D00D8
:00000001FF
