:100000000C9472000C9493000C9493000C94930045
:100010000C9493000C9493000C9493000C94930014
:100020000C9493000C9493000C9493000C94930004
:100030000C9493000C9493000C9493000C949300F4
:100040000C9493000C9493000C9493000C949300E4
:100050000C9493000C9493000C9493000C949300D4
:100060000C9493000C9493000C9493000C949300C4
:100070000C9493000C9493000C9493000C949300B4
:100080000C9493000C9493000C9493000C949300A4
:100090000C9493000C9493000C9493000C94930094
:1000A0000C9493000C9493000C9493000C94930084
:1000B0000C9493000C9493000C9493000C94930074
:1000C0000C9493000C9493000C9493000C94930064
:1000D0000C9493000C9493000C9493000C94930054
:1000E0000C94930011241FBECFEFD1E2DEBFCDBF31
:1000F00000E00CBF12E0A0E0B2E0E6E1F7E000E0D3
:100100000BBF02C007900D92AC33B107D9F712E0D4
:10011000ACE3B2E001C01D92AE33B107E1F70E943B
:100120006D020C9489030C9400001092B90088E4CD
:100130008093B8000895982F84EA8093BC00ECEB7C
:10014000F0E080818823ECF78091B900887F8830C7
:1001500011F080E008959093BB0084E88093BC0088
:10016000ECEBF0E080818823ECF78091B900887F88
:10017000883111F481E00895803211F083E0089510
:1001800082E00895982F84EA8093BC00ECEBF0E0C5
:1001900080818823ECF78091B900887F803111F04D
:1001A00080E008959093BB0084E88093BC00ECEB62
:1001B000F0E080818823ECF78091B900887F80345B
:1001C00011F481E00895803211F083E0089582E017
:1001D000089584E98093BC00ECEBF0E0808184FD1D
:1001E000FDCF0895BF92CF92DF92EF92FF920F93CF
:1001F0001F93CF93DF93E82ECCEBD0E00F2EF4EAE1
:10020000FF2EF02D09EB10E00F2EFBEBCF2EDD249F
:10021000F02D0F2EF4E8BF2EF02DF8828881882370
:10022000ECF7F8018081887F8830B9F7F601E08229
:10023000B88288818823ECF7F8018081887F883133
:1002400019F00E94E900E9CFDF91CF911F910F9142
:10025000FF90EF90DF90CF90BF9008958093BB0008
:1002600084E88093BC00ECEBF0E080818823ECF71D
:100270008091B900887F883211F480E0089580333E
:1002800011F082E0089581E0089584EC8093BC0031
:10029000ECEBF0E080818823ECF78091BB000895BF
:1002A00084E88093BC00ECEBF0E080818823ECF7DD
:1002B0008091BB00089580E090E008958130910521
:1002C00059F08230910579F0892B99F4ECE7F0E050
:1002D0008081887F80830DC0ECE7F0E08081887F9B
:1002E0008260808306C0ECE7F0E08081887F8460D4
:1002F0008083EAE7F0E0808180648083E081809100
:10030000790090E00895EF92FF920F931F93DF938F
:10031000CF9300D000D0CDB7DEB78C0119821A82FE
:100320001B821C82EE24FF24E394E3E2F0E01E82B1
:100330001D82808183FF0CC00115110549F42D81B8
:100340003E81C90101969E838D83285E33408CF3E4
:10035000808183FD0CC00115110549F42D813E817A
:10036000C90101969E838D83285E33408CF3808182
:1003700083FF23C00115110501F52D813E81C901BF
:1003800001969E838D83285E3340BCF489819A81D7
:10039000AB81BC810196A11DB11D89839A83AB837A
:1003A000BC83808183FF09C02D813E81C9010196F4
:1003B0009E838D83285E33404CF3808184FF0CC084
:1003C0000130110549F42D813E81C90101969E83BA
:1003D0008D83285E33408CF3808184FD0CC0013016
:1003E000110549F42D813E81C90101969E838D83BB
:1003F000285E33408CF3808184FF23C001301105D7
:1004000001F52D813E81C90101969E838D83285E71
:100410003340BCF489819A81AB81BC810196A11DD6
:10042000B11D89839A83AB83BC83808184FF09C01B
:100430002D813E81C90101969E838D83285E3340C4
:100440004CF38D819E81885E9340C1F480E092E000
:100450000E94CD02802F0E940E038DE092E00E9448
:10046000CD028E2D0E940E0388E292E00E94CD0202
:100470008AE00E940E0320E030E020C00894E11CD6
:10048000F11C8BE0E816F10409F051CF69817A8103
:100490008B819C819701442737FD4095542F0E9402
:1004A0004C03822F932FA42FB52F89839A83AB837C
:1004B000BC8389819A81AB81BC819C01822F932F5F
:1004C00026960FB6F894DEBF0FBECDBFCF91DF9159
:1004D0001F910F91FF90EF900895ECE7F0E080817D
:1004E00080668083EAE7F0E0808180688083808195
:1004F000876080838FEF80937E0080937D00808172
:10050000806480830E94AB028EE292E00E94CD0262
:100510000E9495008CE30E949B0080E00E942E01C7
:1005200080E70E942E0180EA0E942E0180E00E9456
:100530002E010E94E9000E945B0190933D0280938E
:100540003C0282E392E00E94CD02789482E392E042
:100550000E94CD02FFCF1092C50087E68093C400B1
:10056000E0ECF0E080818D7F808388E18093C100A2
:1005700086E08093C2000895982FE0ECF0E080813F
:1005800085FFFDCF9093C6000895E0ECF0E08081F8
:100590008823ECF78091C60008951F93CF93DF93D3
:1005A000EC018881882351F010E00E94BC021F5F9B
:1005B000FE01E10FF11D80818823B9F7DF91CF9112
:1005C0001F910895EF92FF920F931F93CF93DF93A4
:1005D0007C0170E0EB0121971C161D0614F000E071
:1005E00012C000E00E94C502182F0E94BC021D30FC
:1005F00051F0F701E00FF11D10830F5F802F90E0A5
:100600008C179D077CF3F701E00FF11D1082DF913D
:10061000CF911F910F91FF90EF9008951F93182F86
:1006200064E60E944003805D0E94BC02812F6AE064
:100630000E9440030E944003892F805D0E94BC02FB
:10064000812F6AE00E944003892F805D0E94BC02D6
:100650001F9108958A3010F4805D0895895C089593
:100660001F93182F82958F700E942A030E94BC024C
:10067000812F8F700E942A030E94BC021F9108954F
:10068000991B79E004C0991F961708F0961B881FE4
:100690007A95C9F78095089597FB092E05260ED007
:1006A00057FD04D014D00AD0001C38F45095409562
:1006B000309521953F4F4F4F5F4F0895F6F7909536
:1006C0008095709561957F4F8F4F9F4F0895A1E260
:1006D0001A2EAA1BBB1BFD010DC0AA1FBB1FEE1FBC
:1006E000FF1FA217B307E407F50720F0A21BB30B07
:1006F000E40BF50B661F771F881F991F1A9469F783
:1007000060957095809590959B01AC01BD01CF01DE
:060710000895F894FFCFEC
:100716007761726E696E67205443532000206F75AF
:1007260074206F6620626F756E64617269657320EE
:1007360061667465723A20002072756E73005244C9
:0C074600590020776F726B696E6700002D
:00000001FF
