:100000000C9472000C9493000C9493000C94930045
:100010000C9493000C9493000C9493000C94930014
:100020000C9493000C9493000C9493000C94930004
:100030000C9493000C9493000C9493000C949300F4
:100040000C9493000C9493000C9493000C949300E4
:100050000C9493000C9493000C9493000C949300D4
:100060000C9493000C9493000C9493000C949300C4
:100070000C9493000C9493000C9493000C949300B4
:100080000C9493000C9493000C9493000C949300A4
:100090000C9493000C9493000C9493000C94930094
:1000A0000C9493000C9493000C9493000C94930084
:1000B0000C9493000C9493000C9493000C94930074
:1000C0000C9493000C9493000C9493000C94930064
:1000D0000C9493000C9493000C9493000C94930054
:1000E0000C94930011241FBECFEFD1E2DEBFCDBF31
:1000F00000E00CBF12E0A0E0B2E0E4E3F5E000E0D5
:100100000BBF02C007900D92A430B107D9F712E0DF
:10011000A4E0B2E001C01D92A630B107E1F70E9451
:10012000C8000C9498020C940000DF93CF9300D089
:100130000F92CDB7DEB780E090E0A0E0B0E0898319
:100140009A83AB83BC8369817A818B819C810E9475
:1001500089019B01AC01862F932F0F900F900F9078
:100160000F90CF91DF91089580E090E00895EAE745
:10017000F0E0808180648083E081909178008091BC
:100180007900382F20E0290F311D822F932F0895F9
:10019000ECE7F0E0808180648083EAE7F0E0808132
:1001A000806880838081876080838FEF80937E006A
:1001B00080937D008081806480830E94F40080E0D1
:1001C00092E00E9416010E94B40090930502809371
:1001D0000402789480E090E00E94B7000E945701EA
:1001E0008AE00E940501F6CF1092C50087E6809351
:1001F000C400E0ECF0E080818D7F808388E1809313
:10020000C10086E08093C2000895982FE0ECF0E0F2
:10021000808185FFFDCF9093C6000895E0ECF0E06B
:1002200080818823ECF78091C60008951F93CF93B7
:10023000DF93EC018881882351F010E00E940501D2
:100240001F5FFE01E10FF11D80818823B9F7DF9167
:10025000CF911F910895EF92FF920F931F93CF9329
:10026000DF937C0170E0EB0121971C161D0614F052
:1002700000E012C000E00E940E01182F0E9405014C
:100280001D3051F0F701E00FF11D10830F5F802F3B
:1002900090E08C179D077CF3F701E00FF11D1082B1
:1002A000DF91CF911F910F91FF90EF9008951F93D1
:1002B000182F64E60E945502805D0E940501812F7F
:1002C0006AE00E9455020E945502892F805D0E94BB
:1002D0000501812F6AE00E945502892F805D0E94EE
:1002E00005011F9108958A3010F4805D0895895C9E
:1002F00008951F93182F82958F700E9473010E949A
:100300000501812F8F700E9473010E9405011F91CA
:100310000895ACE0B0E0EFE8F1E00C94710269837D
:100320007A838B839C83CE010196BE016B5F7F4FE6
:100330000E94DD018D81823061F1823050F1843084
:1003400021F48E81882351F12EC02F81388537FD0D
:1003500020C06E812F3131051CF06623F9F023C0D7
:100360008EE190E0821B930B29853A854B855C8555
:1003700004C056954795379527958A95D2F76623F9
:10038000B1F050954095309521953F4F4F4F5F4FBD
:100390000EC020E030E040E050E009C02FEF3FEF1A
:1003A0004FEF5FE704C020E030E040E050E8B901E3
:1003B000CA012C96E2E00C948D02FC01DB01408125
:1003C00051812281622F6F7770E0221F2227221F26
:1003D0009381892F880F822B282F30E0991F99272E
:1003E000991F11969C93119721153105A9F5411577
:1003F00051056105710511F482E037C082E89FEF75
:1004000013969C938E9312979A01AB0167E0220F8B
:10041000331F441F551F6A95D1F783E08C930DC09D
:10042000220F331F441F551F12968D919C911397D5
:10043000019713969C938E931297203080E0380793
:1004400080E0480780E4580758F314962D933D93B5
:100450004D935C93179708952F3F310579F441151B
:1004600051056105710519F484E08C93089564FFCA
:1004700003C081E08C9312C01C9210C02F573040F3
:1004800013963C932E93129783E08C9387E0440F4E
:10049000551F661F771F8A95D1F7706414964D9388
:1004A0005D936D937C9317970895991B79E004C031
:1004B000991F961708F0961B881F7A95C9F78095A3
:1004C00008952F923F924F925F926F927F928F92F8
:1004D0009F92AF92BF92CF92DF92EF92FF920F93D3
:1004E0001F93CF93DF93CDB7DEB7CA1BDB0B0FB6DD
:1004F000F894DEBF0FBECDBF19942A88398848888A
:100500005F846E847D848C849B84AA84B984C8842F
:10051000DF80EE80FD800C811B81AA81B981CE0F26
:10052000D11D0FB6F894DEBF0FBECDBFED0108950B
:04053000F894FFCF6D
:0405340052445900D4
:00000001FF
