:100000000C9472000C9493000C9493000C94930045
:100010000C9493000C9493000C9493000C94930014
:100020000C9493000C9493000C9493000C94930004
:100030000C9493000C9493000C9493000C949300F4
:100040000C9493000C9493000C9493000C949300E4
:100050000C9493000C9493000C9493000C949300D4
:100060000C9493000C9493000C9493000C949300C4
:100070000C9493000C9493000C9493000C949300B4
:100080000C9493000C9493000C9493000C949300A4
:100090000C9493000C9493000C9493000C94930094
:1000A0000C9493000C9493000C9493000C94930084
:1000B0000C9493000C9493000C9493000C94930074
:1000C0000C9493000C9493000C9493000C94930064
:1000D0000C9493000C9493000C9493000C94930054
:1000E0000C94930011241FBECFEFD1E2DEBFCDBF31
:1000F00000E00CBF12E0A0E0B2E0EEE9F7E000E0C3
:100100000BBF02C007900D92A83AB107D9F712E0D1
:10011000A8EAB2E001C01D92AA3AB107E1F70E9435
:1001200029020C94CD030C940000DF93CF930F921F
:100130000F92CDB7DEB71A8219826CE770E0DB014F
:100140008C91887F86608C93EAE7F0E08081806400
:100150008083808129E730E0D9018C91482F50E0DD
:10016000DB018C9187608C93808180648083E08147
:10017000F901808190E08417950734F444365105E5
:100180001CF424EB30E002C020E030E048175907AF
:1001900044F4843691051CF42EE031E002C02AE5D7
:1001A00030E0822F932F0F900F90CF91DF91089521
:1001B000EF92FF920F931F93DF93CF9300D00F9294
:1001C000CDB7DEB78C011A821982EE24FF24E3E258
:1001D000F0E01C821B82808183FF0CC00115110599
:1001E00049F42B813C81C90101969C838B83205D5E
:1001F00037408CF3808183FD0CC00115110549F453
:100200002B813C81C90101969C838B83205D374003
:100210008CF3808183FF1DC001151105D1F42B8162
:100220003C81C90101969C838B83205D37408CF40F
:1002300089819A8101969A838983808183FF09C08D
:100240002B813C81C90101969C838B83205D3740C3
:100250007CF3808184FF0CC00130110549F42B81AF
:100260003C81C90101969C838B83205D37408CF3D0
:10027000808184FD0CC00130110549F42B813C8143
:10028000C90101969C838B83205D37408CF380816C
:1002900084FF1DC001301105D1F42B813C81C901BF
:1002A00001969C838B83205D37408CF489819A81F1
:1002B00001969A838983808184FF09C02B813C81C8
:1002C000C90101969C838B83205D37407CF38B8131
:1002D0009C81805D9740C1F480E092E00E942703FA
:1002E000802F0E9468038DE092E00E9427038E2DEC
:1002F0000E94680388E292E00E9427038AE00E943D
:10030000160320E030E013C00894E11CF11C8AE0E1
:10031000E816F10409F05DCF89819A81B7010E9446
:10032000A603862F972F9A83898329813A81822F6A
:10033000932F0F900F900F900F90CF91DF911F91FF
:100340000F91FF90EF900895DF93CF930F920F924C
:10035000CDB7DEB79C011A821982ECE7F0E080810C
:10036000807E80832130310599F022303105D1F033
:10037000232B29F040E050E020E030E01CC0ECE707
:10038000F0E08081808340E050E020E030E013C066
:10039000ECE7F0E080818260808340E050E020E084
:1003A00030E009C0ECE7F0E080818460808340E0C9
:1003B00050E020E030E0EAE7F0E0A9E7B0E080813B
:1003C0008064808380818C91480F511D2F5F3F4F47
:1003D00025303105A1F789819A81885E934051F5D6
:1003E0008EE292E00E9427038AE00E94160340E01A
:1003F00050E020E030E0EAE7F0E0A9E7B0E08081FB
:100400008064808380818C91480F511D2F5F3F4F06
:1004100025303105A1F789819A81805D974051F49B
:1004200085E592E00E9427038AE00E94160320E0FF
:1004300030E008C0CA0165E070E00E94A603862F84
:10044000972F9C01822F932F0F900F90CF91DF91C8
:1004500008952F923F924F925F926F927F928F9268
:100460009F92AF92BF92CF92DF92EF92FF920F9343
:100470001F93CF93DF93ECE7F0E080818066808369
:10048000EAE7F0E0808180688083808187608083F4
:100490008FEF80937E0080937D00808180648083D5
:1004A000E4E2F0E0808183608083E7E2F0E0808135
:1004B000866E8083E1E0F1E08081886180838081C5
:1004C000806680830E9405030E9495009093A90294
:1004D0008093A802789482E692E00E9427038AE043
:1004E0000E941603C9E0D1E00BE612E00F2EFFE7F1
:1004F0002F2EF2E03F2EF02D0F2EF4E84F2EF2E0DB
:100500005F2EF02D0F2EFAE86F2EF2E07F2EF02DE9
:100510000F2EF0E98F2EF2E09F2EF02D0F2EF6E930
:10052000AF2EF2E0BF2EF02D0F2EFCE9CF2EF2E021
:10053000DF2EF02D0F2EF2EAEF2EF2E0FF2EF02D3F
:100540008AE00E941603888186FF05C086E692E055
:100550000E94270303C0C8010E942703888186FFE9
:1005600005C080E792E00E94270303C0C8010E94F3
:100570002703888186FF05C085E792E00E94270354
:1005800003C0C8010E942703888186FF05C08AE74F
:1005900092E00E94270303C0C8010E9427038881BC
:1005A00086FF04C0C1010E94270303C0C8010E9446
:1005B0002703C2010E9427030E9495000E9468033E
:1005C000C3010E94270380E090E00E94A4010E94E2
:1005D0006803C4010E94270381E090E00E94A40107
:1005E0000E946803C5010E94270382E090E00E94F8
:1005F000A4010E946803C6010E942703C7010E944C
:1006000027038AE00E9416039BCF1092C50087E65D
:100610008093C400E0ECF0E080818D7F808388E1EE
:100620008093C10086E08093C2000895982FE0EC8B
:10063000F0E0808185FFFDCF9093C6000895E0EC47
:10064000F0E080818823ECF78091C60008951F9325
:10065000CF93DF93EC018881882351F010E00E9452
:1006600016031F5FFE01E10FF11D80818823B9F79A
:10067000DF91CF911F910895EF92FF920F931F93F7
:10068000CF93DF937C0170E0EB0121971C161D06D0
:1006900014F000E012C000E00E941F03182F0E9417
:1006A00016031D3051F0F701E00FF11D10830F5FAD
:1006B000802F90E08C179D077CF3F701E00FF11D70
:1006C0001082DF91CF911F910F91FF90EF900895CD
:1006D0001F93182F64E60E949A03805D0E94160300
:1006E000812F6AE00E949A030E949A03892F805DFD
:1006F0000E941603812F6AE00E949A03892F805D71
:100700000E9416031F9108958A3010F4805D0895A9
:10071000895C08951F93182F82958F700E9484031F
:100720000E941603812F8F700E9484030E9416037B
:100730001F910895991B79E004C0991F961708F03E
:10074000961B881F7A95C9F78095089597FB092E07
:1007500007260AD077FD04D00CD006D000201AF46A
:10076000709561957F4F0895F6F7909581959F4F0D
:100770000895AA1BBB1B51E107C0AA1FBB1FA617E8
:10078000B70710F0A61BB70B881F991F5A95A9F73A
:0E07900080959095BC01CD010895F894FFCF9F
:10079E007761726E696E67205443532000206F7527
:1007AE0074206F6620626F756E6461726965732066
:1007BE0061667465723A20002072756E73007761FF
:1007CE00726E696E6720414443206F7574206F66A8
:1007DE0020626F756E6461726965732072657472E2
:1007EE0079696E67005265747279206661696C650D
:1007FE00640052445900464C202000202020200046
:10080E0046523120004652322000424C20200042F7
:10081E0052202000204D41473D00204952303D00DE
:10082E00204952313D00204952323D0020434C3088
:08083E003D0020434C313D0058
:00000001FF
