:100000000C9472000C9493000C9493000C94930045
:100010000C9493000C9493000C9493000C94930014
:100020000C9493000C9493000C9493000C94930004
:100030000C9493000C9493000C9493000C949300F4
:100040000C9493000C9493000C9493000C949300E4
:100050000C9493000C9493000C9493000C949300D4
:100060000C9493000C9493000C9493000C949300C4
:100070000C9493000C9493000C9493000C949300B4
:100080000C9493000C9493000C9493000C949300A4
:100090000C9493000C9493000C9493000C94930094
:1000A0000C9493000C9493000C9493000C94930084
:1000B0000C9493000C9493000C9493000C94930074
:1000C0000C9493000C9493000C9493000C94930064
:1000D0000C9493000C9493000C9493000C94930054
:1000E0000C94930011241FBECFEFD1E2DEBFCDBF31
:1000F00000E00CBF12E0A0E0B2E0E4E7F7E000E0CF
:100100000BBF02C007900D92A636B107D9F712E0D7
:10011000A6E6B2E001C01D92A836B107E1F70E9441
:10012000B7020C94B8030C9400001092B90088E454
:100130008093B8000895982F84EA8093BC00ECEB7C
:10014000F0E080818823ECF78091B900887F8830C7
:1001500011F080E008959093BB0084E88093BC0088
:10016000ECEBF0E080818823ECF78091B900887F88
:10017000883111F481E00895803211F083E0089510
:1001800082E00895982F84EA8093BC00ECEBF0E0C5
:1001900080818823ECF78091B900887F803111F04D
:1001A00080E008959093BB0084E88093BC00ECEB62
:1001B000F0E080818823ECF78091B900887F80345B
:1001C00011F481E00895803211F083E0089582E017
:1001D000089584E98093BC00ECEBF0E0808184FD1D
:1001E000FDCF0895BF92CF92DF92EF92FF920F93CF
:1001F0001F93CF93DF93E82ECCEBD0E00F2EF4EAE1
:10020000FF2EF02D09EB10E00F2EFBEBCF2EDD249F
:10021000F02D0F2EF4E8BF2EF02DF8828881882370
:10022000ECF7F8018081887F8830B9F7F601E08229
:10023000B88288818823ECF7F8018081887F883133
:1002400019F00E94E900E9CFDF91CF911F910F9142
:10025000FF90EF90DF90CF90BF9008958093BB0008
:1002600084E88093BC00ECEBF0E080818823ECF71D
:100270008091B900887F883211F480E0089580333E
:1002800011F082E0089581E0089584EC8093BC0031
:10029000ECEBF0E080818823ECF78091BB000895BF
:1002A00084E88093BC00ECEBF0E080818823ECF7DD
:1002B0008091BB00089580E090E00895EF92FF9256
:1002C0000F931F93DF93CF9300D00F92CDB7DEB77C
:1002D0008C011A821982EE24FF24E394E3E2F0E019
:1002E0001C821B82808183FF0CC00115110549F41B
:1002F0002B813C81C90101969C838B83205D374013
:100300008CF3808183FD0CC00115110549F42B810C
:100310003C81C90101969C838B83205D37408CF31F
:10032000808183FF1DC001151105D1F42B813C8113
:10033000C90101969C838B83205D37408CF48981B1
:100340009A8101969A838983808183FF09C02B81DA
:100350003C81C90101969C838B83205D37407CF3EF
:10036000808184FF0CC00130110549F42B813C8150
:10037000C90101969C838B83205D37408CF380817B
:1003800084FD0CC00130110549F42B813C81C90169
:1003900001969C838B83205D37408CF3808184FFA2
:1003A0001DC001301105D1F42B813C81C90101969A
:1003B0009C838B83205D37408CF489819A810196E0
:1003C0009A838983808184FF09C02B813C81C90184
:1003D00001969C838B83205D37407CF38B819C81CD
:1003E000805D9740C1F480E092E00E941203802F6C
:1003F0000E9453038DE092E00E9412038E2D0E9412
:10040000530388E292E00E9412038AE00E945303A1
:1004100020E030E013C00894E11CF11C8AE0E816EB
:10042000F10409F05DCF89819A81B7010E9491039F
:10043000862F972F9A83898329813A81822F932F40
:100440000F900F900F900F90CF91DF911F910F9110
:10045000FF90EF900895DF93CF930F920F92CDB757
:10046000DEB71A8219828130910559F082309105E8
:1004700099F1892B61F4ECE7F0E08081887F80833B
:1004800006C0ECE7F0E08081887F82608083EAE745
:10049000F0E08081806480838081A9E7B0E02C91C6
:1004A00080818064808380819C918081806480834E
:1004B00080818C9130E0290F311D280F311D808102
:1004C00080648083E0818C91280F311D89819A811D
:1004D000885E9340E9F507C0ECE7F0E08081887F13
:1004E00084608083D4CF8EE292E00E9412038AE07F
:1004F0000E945303EAE7F0E080818064808380817A
:10050000A9E7B0E09C9180818064808380812C91F8
:1005100080818064808380818C9130E0280F311D40
:10052000290F311D808180648083E0818C91280FA8
:10053000311D89819A81805D974051F485E592E073
:100540000E9412038AE00E94530320E030E008C0BA
:10055000C90165E070E00E949103862F972F9C01EE
:10056000822F932F0F900F90CF91DF910895ECE79A
:10057000F0E0808180668083EAE7F0E08081806837
:1005800080838081876080838FEF80937E0080935B
:100590007D008081806480830E94F0020E9495002B
:1005A0008CE30E949B0080E00E942E0180E70E9465
:1005B0002E0180EA0E942E0180E00E942E010E94FE
:1005C000E9000E945B019093670280936602789431
:1005D00082E692E00E9412038AE00E945303FFCF5A
:1005E0001092C50087E68093C400E0ECF0E08081C3
:1005F0008D7F808388E18093C10086E08093C20074
:100600000895982FE0ECF0E0808185FFFDCF909376
:10061000C6000895E0ECF0E080818823ECF780913B
:10062000C60008951F93CF93DF93EC018881882340
:1006300051F010E00E9401031F5FFE01E10FF11D68
:1006400080818823B9F7DF91CF911F910895EF92B0
:10065000FF920F931F93CF93DF937C0170E0EB0128
:1006600021971C161D0614F000E012C000E00E9445
:100670000A03182F0E9401031D3051F0F701E00F0B
:10068000F11D10830F5F802F90E08C179D077CF386
:10069000F701E00FF11D1082DF91CF911F910F91B3
:1006A000FF90EF9008951F93182F64E60E94850332
:1006B000805D0E940103812F6AE00E9485030E94F1
:1006C0008503892F805D0E940103812F6AE00E94CB
:1006D0008503892F805D0E9401031F9108958A3050
:1006E00010F4805D0895895C08951F93182F8295FA
:1006F0008F700E946F030E940103812F8F700E94F0
:100700006F030E9401031F910895991B79E004C0B3
:10071000991F961708F0961B881F7A95C9F7809540
:10072000089597FB092E07260AD077FD04D00CD038
:1007300006D000201AF4709561957F4F0895F6F762
:10074000909581959F4F0895AA1BBB1B51E107C04F
:10075000AA1FBB1FA617B70710F0A61BB70B881F51
:10076000991F5A95A9F780959095BC01CD010895E0
:04077000F894FFCF2B
:100774007761726E696E67205443532000206F7551
:1007840074206F6620626F756E6461726965732090
:1007940061667465723A20002072756E7300776129
:1007A400726E696E6720414443206F7574206F66D2
:1007B40020626F756E64617269657320726574720C
:1007C40079696E67005265747279206661696C6537
:0607D400640052445900CC
:00000001FF
