:100000000C9472000C9493000C9493000C94930045
:100010000C9493000C9493000C9493000C94930014
:100020000C9493000C9493000C9493000C94930004
:100030000C9493000C9493000C9493000C949300F4
:100040000C9493000C9493000C9493000C949300E4
:100050000C9493000C9493000C9493000C949300D4
:100060000C9493000C9493000C9493000C949300C4
:100070000C9493000C9493000C9493000C949300B4
:100080000C9493000C9493000C9493000C949300A4
:100090000C9493000C9493000C9493000C94930094
:1000A0000C9493000C9493000C9493000C94930084
:1000B0000C9493000C9493000C9493000C94930074
:1000C0000C9493000C9493000C9493000C94930064
:1000D0000C9493000C9493000C9493000C94930054
:1000E0000C94930011241FBECFEFD1E2DEBFCDBF31
:1000F00000E00CBF12E0A0E0B2E0E8E4F7E000E0CE
:100100000BBF02C007900D92A631B107D9F712E0DC
:10011000A6E1B2E001C01D92A831B107E1F70E944B
:10012000A2010C94A2030C9400001092B90088E480
:100130008093B8000895982F84EA8093BC00ECEB7C
:10014000F0E080818823ECF78091B900887F8830C7
:1001500011F080E008959093BB0084E88093BC0088
:10016000ECEBF0E080818823ECF78091B900887F88
:10017000883111F481E00895803211F083E0089510
:1001800082E00895982F84EA8093BC00ECEBF0E0C5
:1001900080818823ECF78091B900887F803111F04D
:1001A00080E008959093BB0084E88093BC00ECEB62
:1001B000F0E080818823ECF78091B900887F80345B
:1001C00011F481E00895803211F083E0089582E017
:1001D000089584E98093BC00ECEBF0E0808184FD1D
:1001E000FDCF0895BF92CF92DF92EF92FF920F93CF
:1001F0001F93CF93DF93E82ECCEBD0E00F2EF4EAE1
:10020000FF2EF02D09EB10E00F2EFBEBCF2EDD249F
:10021000F02D0F2EF4E8BF2EF02DF8828881882370
:10022000ECF7F8018081887F8830B9F7F601E08229
:10023000B88288818823ECF7F8018081887F883133
:1002400019F00E94E900E9CFDF91CF911F910F9142
:10025000FF90EF90DF90CF90BF9008958093BB0008
:1002600084E88093BC00ECEBF0E080818823ECF71D
:100270008091B900887F883211F480E0089580333E
:1002800011F082E0089581E0089584EC8093BC0031
:10029000ECEBF0E080818823ECF78091BB000895BF
:1002A00084E88093BC00ECEBF0E080818823ECF7DD
:1002B0008091BB000895DF93CF9300D00F92CDB70C
:1002C000DEB780E090E0A0E0B0E089839A83AB8362
:1002D000BC8369817A818B819C810E9493029B01FE
:1002E000AC01862F932F0F900F900F900F90CF910E
:1002F000DF91089580E090E008958130910559F0F4
:100300008230910579F0892B99F4ECE7F0E0808157
:10031000887F80830DC0ECE7F0E08081887F826079
:10032000808306C0ECE7F0E08081887F8460808372
:10033000EAE7F0E0808180648083E0818091790049
:1003400090E008951F93CF93DF93ECE7F0E0808176
:1003500080668083EAE7F0E0808180688083808126
:10036000876080838FEF80937E0080937D00808103
:10037000806480830E94FE0180E092E00E9420025F
:100380000E9495008CE30E949B0080E00E942E0159
:1003900080E70E942E0180EA0E942E0180E00E94E8
:1003A0002E010E94E9000E947A0190931702809327
:1003B000160284E092E00E942002789484E092E0A9
:1003C0000E942002CDE0D2E08CE30E949B0083E0FB
:1003D0000E942E018DE30E94C2000E9445010E94EE
:1003E0004501182F0E94E900812F0E946102CE0171
:1003F0000E9420028AE00E940F02E6CF1092C50000
:1004000087E68093C400E0ECF0E080818D7F8083FC
:1004100088E18093C10086E08093C2000895982F00
:10042000E0ECF0E0808185FFFDCF9093C600089559
:10043000E0ECF0E080818823ECF78091C60008951D
:100440001F93CF93DF93EC018881882351F010E054
:100450000E940F021F5FFE01E10FF11D80818823C2
:10046000B9F7DF91CF911F910895EF92FF920F930B
:100470001F93CF93DF937C0170E0EB0121971C1653
:100480001D0614F000E012C000E00E941802182FB0
:100490000E940F021D3051F0F701E00FF11D108393
:1004A0000F5F802F90E08C179D077CF3F701E00F22
:1004B000F11D1082DF91CF911F910F91FF90EF906E
:1004C00008951F93182F64E60E945F03805D0E94C9
:1004D0000F02812F6AE00E945F030E945F03892F51
:1004E000805D0E940F02812F6AE00E945F03892FC6
:1004F000805D0E940F021F9108958A3010F4805D84
:100500000895895C08951F93182F82958F700E941B
:100510007D020E940F02812F8F700E947D020E9437
:100520000F021F910895ACE0B0E0E9E9F2E00C940D
:100530007B0369837A838B839C83CE010196BE0102
:100540006B5F7F4F0E94E7028D81823061F18230C4
:1005500050F1843021F48E81882351F12EC02F81F7
:10056000388537FD20C06E812F3131051CF06623A0
:10057000F9F023C08EE190E0821B930B29853A8528
:100580004B855C8504C056954795379527958A9588
:10059000D2F76623B1F050954095309521953F4FA5
:1005A0004F4F5F4F0EC020E030E040E050E009C008
:1005B0002FEF3FEF4FEF5FE704C020E030E040E077
:1005C00050E8B901CA012C96E2E00C949703FC01B3
:1005D000DB01408151812281622F6F7770E0221F01
:1005E0002227221F9381892F880F822B282F30E00A
:1005F000991F9927991F11969C93119721153105E1
:10060000A9F5411551056105710511F482E037C066
:1006100082E89FEF13969C938E9312979A01AB01F9
:1006200067E0220F331F441F551F6A95D1F783E0FF
:100630008C930DC0220F331F441F551F12968D91AE
:100640009C911397019713969C938E931297203049
:1006500080E0380780E0480780E4580758F3149694
:100660002D933D934D935C93179708952F3F31053C
:1006700079F4411551056105710519F484E08C93F5
:10068000089564FF03C081E08C9312C01C9210C0D7
:100690002F57304013963C932E93129783E08C9300
:1006A00087E0440F551F661F771F8A95D1F7706446
:1006B00014964D935D936D937C9317970895991BB2
:1006C00079E004C0991F961708F0961B881F7A9549
:1006D000C9F7809508952F923F924F925F926F9243
:1006E0007F928F929F92AF92BF92CF92DF92EF92C2
:1006F000FF920F931F93CF93DF93CDB7DEB7CA1B43
:10070000DB0B0FB6F894DEBF0FBECDBF19942A885D
:10071000398848885F846E847D848C849B84AA8415
:10072000B984C884DF80EE80FD800C811B81AA81A2
:10073000B981CE0FD11D0FB6F894DEBF0FBECDBF6D
:08074000ED010895F894FFCFCC
:100748005244590020776F726B696E6700776F7239
:060758006B696E670000F2
:00000001FF
