:100000000C9472000C9493000C9493000C94930045
:100010000C9493000C9493000C9493000C94930014
:100020000C9493000C9493000C9493000C94930004
:100030000C9493000C9493000C9493000C949300F4
:100040000C9493000C9493000C9493000C949300E4
:100050000C9493000C9493000C9493000C949300D4
:100060000C9493000C9493000C9493000C949300C4
:100070000C9493000C9493000C9493000C949300B4
:100080000C9493000C9493000C9493000C949300A4
:100090000C9493000C9493000C9493000C94930094
:1000A0000C9493000C9493000C9493000C94930084
:1000B0000C9493000C9493000C9493000C94930074
:1000C0000C9493000C9493000C9493000C94930064
:1000D0000C9493000C9493000C9493000C94930054
:1000E0000C94930011241FBECFEFD1E2DEBFCDBF31
:1000F00000E00CBF12E0A0E0B2E0E0ECF3E000E0D2
:100100000BBF02C007900D92A030B107D9F712E0E3
:10011000A0E0B2E001C01D92A230B107E1F70E9459
:1001200095000C94DE010C940000DF93CF93CDB7C3
:10013000DEB70E94CA009093010280930002789477
:10014000FFCFDF93CF93CDB7DEB728970FB6F894E4
:10015000DEBF0FBECDBF98878F8380E090E0A0E028
:10016000B0E08B839C83AD83BE831A8219828B811E
:100170009C81AD81BE81BC01CD010E94DB00DC0110
:10018000CB0128960FB6F894DEBF0FBECDBFCF913E
:10019000DF910895DF93CF9300D000D0CDB7DEB7C5
:1001A0008D819E8126960FB6F894DEBF0FBECDBF1F
:1001B000CF91DF910895ACE0B0E0E1EEF0E00C9477
:1001C000B70169837A838B839C83CE010196BE013C
:1001D0006B5F7F4F0E942F018D81823061F18230F1
:1001E00050F1843021F48E81882351F12EC02F816B
:1001F000388537FD20C06E812F3131051CF0662314
:10020000F9F023C08EE190E0821B930B29853A859B
:100210004B855C8504C056954795379527958A95FB
:10022000D2F76623B1F050954095309521953F4F18
:100230004F4F5F4F0EC020E030E040E050E009C07B
:100240002FEF3FEF4FEF5FE704C020E030E040E0EA
:1002500050E8B901CA012C96E2E00C94D301FC01EC
:10026000DB01408151812281622F6F7770E0221F74
:100270002227221F9381892F880F822B282F30E07D
:10028000991F9927991F11969C9311972115310554
:10029000A9F5411551056105710511F482E037C0DA
:1002A00082E89FEF13969C938E9312979A01AB016D
:1002B00067E0220F331F441F551F6A95D1F783E073
:1002C0008C930DC0220F331F441F551F12968D9122
:1002D0009C911397019713969C938E9312972030BD
:1002E00080E0380780E0480780E4580758F3149608
:1002F0002D933D934D935C93179708952F3F3105B0
:1003000079F4411551056105710519F484E08C9368
:10031000089564FF03C081E08C9312C01C9210C04A
:100320002F57304013963C932E93129783E08C9373
:1003300087E0440F551F661F771F8A95D1F77064B9
:1003400014964D935D936D937C93179708952F9218
:100350003F924F925F926F927F928F929F92AF9255
:10036000BF92CF92DF92EF92FF920F931F93CF93A2
:10037000DF93CDB7DEB7CA1BDB0B0FB6F894DEBF39
:100380000FBECDBF19942A88398848885F846E844F
:100390007D848C849B84AA84B984C884DF80EE80A9
:1003A000FD800C811B81AA81B981CE0FD11D0FB6B2
:1003B000F894DEBF0FBECDBFED010895F894FFCFD6
:00000001FF
