:100000000C9472000C9493000C9493000C94930045
:100010000C9493000C9493000C9493000C94930014
:100020000C9493000C9493000C9493000C94930004
:100030000C9493000C9493000C9493000C949300F4
:100040000C9493000C9493000C9493000C949300E4
:100050000C9493000C9493000C9493000C949300D4
:100060000C9493000C9493000C9493000C949300C4
:100070000C9493000C9493000C9493000C949300B4
:100080000C9493000C9493000C9493000C949300A4
:100090000C9493000C9493000C9493000C94930094
:1000A0000C9493000C9493000C9493000C94930084
:1000B0000C9493000C9493000C9493000C94930074
:1000C0000C9493000C9493000C9493000C94930064
:1000D0000C9493000C9493000C9493000C94930054
:1000E0000C94930011241FBECFEFD1E2DEBFCDBF31
:1000F00000E00CBF12E0A0E0B2E0EEECF3E000E0C4
:100100000BBF02C007900D92A030B107D9F712E0E3
:10011000A0E0B2E001C01D92A230B107E1F70E9459
:10012000B7000C94E5010C940000DF93CF9300D04E
:100130000F92CDB7DEB780E090E0A0E0B0E0898319
:100140009A83AB83BC8369817A818B819C810E9475
:10015000E2009B01AC01862F932F0F900F900F9020
:100160000F90CF91DF91089580E090E00895ECE743
:10017000F0E0808180648083EAE7F0E0808180683D
:1001800080838081876080838FEF80937E0080935F
:100190007D000E94B4009093010280930002789445
:1001A000FFCFEAE7F0E0808180648083E081909176
:1001B000780080917900382F20E0290F311D822F9F
:1001C000932F0895ACE0B0E0E8EEF0E00C94BE01AF
:1001D00069837A838B839C83CE010196BE016B5F1A
:1001E0007F4F0E9436018D81823061F1823050F163
:1001F000843021F48E81882351F12EC02F813885DF
:1002000037FD20C06E812F3131051CF06623F9F0D7
:1002100023C08EE190E0821B930B29853A854B85A4
:100220005C8504C056954795379527958A95D2F7F2
:100230006623B1F050954095309521953F4F4F4F33
:100240005F4F0EC020E030E040E050E009C02FEFEB
:100250003FEF4FEF5FE704C020E030E040E050E8C0
:10026000B901CA012C96E2E00C94DA01FC01DB0131
:10027000408151812281622F6F7770E0221F2227F7
:10028000221F9381892F880F822B282F30E0991FFE
:100290009927991F11969C93119721153105A9F55E
:1002A000411551056105710511F482E037C082E8FE
:1002B0009FEF13969C938E9312979A01AB0167E080
:1002C000220F331F441F551F6A95D1F783E08C938B
:1002D0000DC0220F331F441F551F12968D919C9104
:1002E0001397019713969C938E931297203080E07A
:1002F000380780E0480780E4580758F314962D9398
:100300003D934D935C93179708952F3F310579F4F2
:10031000411551056105710519F484E08C93089528
:1003200064FF03C081E08C9312C01C9210C02F5751
:10033000304013963C932E93129783E08C9387E082
:10034000440F551F661F771F8A95D1F77064149666
:100350004D935D936D937C93179708952F923F92E1
:100360004F925F926F927F928F929F92AF92BF92C5
:10037000CF92DF92EF92FF920F931F93CF93DF9371
:10038000CDB7DEB7CA1BDB0B0FB6F894DEBF0FBECE
:10039000CDBF19942A88398848885F846E847D840B
:1003A0008C849B84AA84B984C884DF80EE80FD801D
:1003B0000C811B81AA81B981CE0FD11D0FB6F89493
:0E03C000DEBF0FBECDBFED010895F894FFCF54
:00000001FF
