:100000000C9472000C9493000C9493000C94930045
:100010000C9493000C9493000C9493000C94930014
:100020000C9493000C9493000C9493000C94930004
:100030000C9493000C9493000C9493000C949300F4
:100040000C9493000C9493000C9493000C949300E4
:100050000C9493000C9493000C9493000C949300D4
:100060000C9493000C9493000C9493000C949300C4
:100070000C9493000C9493000C9493000C949300B4
:100080000C9493000C9493000C9493000C949300A4
:100090000C9493000C9493000C9493000C94930094
:1000A0000C9493000C9493000C9493000C94930084
:1000B0000C9493000C9493000C9493000C94930074
:1000C0000C9493000C9493000C9493000C94930064
:1000D0000C9493000C9493000C9493000C94930054
:1000E0000C94930011241FBECFEFD1E2DEBFCDBF31
:1000F00000E00CBF12E0A0E0B2E0EAE2F7E000E0CE
:100100000BBF02C007900D92A636B107D9F712E0D7
:10011000A6E6B2E001C01D92A836B107E1F70E9441
:1001200029020C9493030C940000DF93CF930F9259
:100130000F92CDB7DEB71A8219826CE770E0DB014F
:100140008C91887F86608C93EAE7F0E08081806400
:100150008083808129E730E0D9018C91482F50E0DD
:10016000DB018C9187608C93808180648083E08147
:10017000F901808190E08417950734F444365105E5
:100180001CF424EB30E002C020E030E048175907AF
:1001900044F4843691051CF42EE031E002C02AE5D7
:1001A00030E0822F932F0F900F90CF91DF91089521
:1001B000EF92FF920F931F93DF93CF9300D00F9294
:1001C000CDB7DEB78C011A821982EE24FF24E9E054
:1001D000F1E01C821B82808185FF0CC00115110596
:1001E00049F42B813C81C90101969C838B83205D5E
:1001F00037408CF3808185FD0CC00115110549F451
:100200002B813C81C90101969C838B83205D374003
:100210008CF3808185FF1DC001151105D1F42B8160
:100220003C81C90101969C838B83205D37408CF40F
:1002300089819A8101969A838983808185FF09C08B
:100240002B813C81C90101969C838B83205D3740C3
:100250007CF3808183FF0CC00130110549F42B81B0
:100260003C81C90101969C838B83205D37408CF3D0
:10027000808183FD0CC00130110549F42B813C8144
:10028000C90101969C838B83205D37408CF380816C
:1002900083FF1DC001301105D1F42B813C81C901C0
:1002A00001969C838B83205D37408CF489819A81F1
:1002B00001969A838983808183FF09C02B813C81C9
:1002C000C90101969C838B83205D37407CF38B8131
:1002D0009C81805D9740C1F480E092E00E94ED0235
:1002E000802F0E942E038DE092E00E94ED028E2D61
:1002F0000E942E0388E292E00E94ED028AE00E94B2
:10030000DC0220E030E013C00894E11CF11C8AE01C
:10031000E816F10409F05DCF89819A81B7010E9446
:100320006C03862F972F9A83898329813A81822FA4
:10033000932F0F900F900F900F90CF91DF911F91FF
:100340000F91FF90EF900895DF93CF930F920F924C
:10035000CDB7DEB79C011A821982ECE7F0E080810C
:10036000807E80832130310599F022303105D1F033
:10037000232B29F040E050E020E030E01CC0ECE707
:10038000F0E08081808340E050E020E030E013C066
:10039000ECE7F0E080818260808340E050E020E084
:1003A00030E009C0ECE7F0E080818460808340E0C9
:1003B00050E020E030E0EAE7F0E0A9E7B0E080813B
:1003C0008064808380818C91480F511D2F5F3F4F47
:1003D00025303105A1F789819A81885E934051F5D6
:1003E0008EE292E00E94ED028AE00E94DC0240E090
:1003F00050E020E030E0EAE7F0E0A9E7B0E08081FB
:100400008064808380818C91480F511D2F5F3F4F06
:1004100025303105A1F789819A81805D974051F49B
:1004200085E592E00E94ED028AE00E94DC0220E075
:1004300030E008C0CA0165E070E00E946C03862FBE
:10044000972F9C01822F932F0F900F90CF91DF91C8
:100450000895CF93DF93ECE7F0E08081806680839E
:10046000EAE7F0E080818068808380818760808314
:100470008FEF80937E0080937D00808180648083F5
:10048000E1E0F1E0808180668083E4E2F0E0808159
:10049000806E8083808189608083EAE0F1E08081E2
:1004A000846180830E94CB020E9495009093670232
:1004B00080936602789482E692E00E94ED028AE0E0
:1004C0000E94DC0220E030E060E070E0E5E2F0E075
:1004D000CBE0D1E0A2E0B1E040E45FE155C02115FE
:1004E000310559F48C9180628C938C9180648C934B
:1004F00080818F718062808317C081E0243F38073C
:1005000059F48C918F7D8C938C918F7B8C9380810F
:100510008F718068808327C02A3F310529F480814C
:100520008F718064808314C082E02E3E380721F4EE
:1005300080818F71808323C02115310549F480812A
:10054000867F8160808388818B7E8061888317C0ED
:1005500081E02D34380739F48081867F808388815B
:100560008B7E88830CC082E02A39380741F4808171
:10057000867F8860808388818B7E84608883CA01BF
:100580000197F1F72F5F3F4F83E0293E38070CF4C6
:10059000A6CF9B01A7CF1092C50087E68093C40029
:1005A000E0ECF0E080818D7F808388E18093C10062
:1005B00086E08093C2000895982FE0ECF0E08081FF
:1005C00085FFFDCF9093C6000895E0ECF0E08081B8
:1005D0008823ECF78091C60008951F93CF93DF9393
:1005E000EC018881882351F010E00E94DC021F5F3B
:1005F000FE01E10FF11D80818823B9F7DF91CF91D2
:100600001F910895EF92FF920F931F93CF93DF9363
:100610007C0170E0EB0121971C161D0614F000E030
:1006200012C000E00E94E502182F0E94DC021D307B
:1006300051F0F701E00FF11D10830F5F802F90E064
:100640008C179D077CF3F701E00FF11D1082DF91FD
:10065000CF911F910F91FF90EF9008951F93182F46
:1006600064E60E946003805D0E94DC02812F6AE0E4
:100670000E9460030E946003892F805D0E94DC025B
:10068000812F6AE00E946003892F805D0E94DC0256
:100690001F9108958A3010F4805D0895895C089553
:1006A0001F93182F82958F700E944A030E94DC02CC
:1006B000812F8F700E944A030E94DC021F910895CF
:1006C000991B79E004C0991F961708F0961B881FA4
:1006D0007A95C9F78095089597FB092E07260AD0C9
:1006E00077FD04D00CD006D000201AF470956195E7
:1006F0007F4F0895F6F7909581959F4F0895AA1B17
:10070000BB1B51E107C0AA1FBB1FA617B70710F0FC
:10071000A61BB70B881F991F5A95A9F7809590952E
:0A072000BC01CD010895F894FFCF4D
:10072A007761726E696E67205443532000206F759B
:10073A0074206F6620626F756E64617269657320DA
:10074A0061667465723A20002072756E7300776173
:10075A00726E696E6720414443206F7574206F661C
:10076A0020626F756E646172696573207265747256
:10077A0079696E67005265747279206661696C6581
:06078A0064005244590016
:00000001FF
